:100000000C9434000C943E000C943E000C943E0082
:100010000C943E000C943E000C943E000C943E0068
:100020000C943E000C943E000C943E000C943E0058
:100030000C943E000C943E000C943E000C943E0048
:100040000C943E000C943E000C943E000C943E0038
:100050000C943E000C943E000C943E000C943E0028
:100060000C943E000C943E0011241FBECFEFD8E04C
:10007000DEBFCDBF0E944A000C9469000C940000C2
:1000800028E833E104C0F9013197F1F701970097AF
:10009000D1F70895CF93DF9382E084B984E085B9E6
:1000A0008CE087B9C8E8D3E118B8439A82EC91E0B4
:1000B000FE013197F1F70197D9F70E94670082ECB2
:1000C00091E0FE013197F1F70197D9F7EDCF429A10
:0600D0000895F894FFCF33
:00000001FF
