:100000000C9434000C943E000C943E000C943E0082
:100010000C943E000C943E000C943E000C943E0068
:100020000C943E000C943E000C943E000C943E0058
:100030000C943E000C943E000C943E000C943E0048
:100040000C943E000C943E000C943E000C943E0038
:100050000C943E000C943E000C943E000C943E0028
:100060000C943E000C943E0011241FBECFEFD8E04C
:10007000DEBFCDBF0E944A000C9464000C940000C7
:1000800028E833E104C0F9013197F1F701970097AF
:10009000D1F70895CF93DF9382E084B984E085B9E6
:1000A0008CE087B9C8E8D3E118B8439A309BFCCFFD
:1000B0000E94620088EE93E0FE013197F1F701970C
:0C00C000D9F7F2CF429A0895F894FFCFD0
:00000001FF
