:100000000C9461000C947E000C947E000C947E0095
:100010000C94CA010C947E000C947E000C947E001B
:100020000C947E000C947E000C947E000C947E0058
:100030000C947E000C947E000C947E000C947E0048
:100040000C947E000C947E000C947E000C947E0038
:100050000C947E000C947E000C947E000C947E0028
:100060000C947E000C947E0008000000BE9224498F
:10007000123EABAAAA2ABECDCCCC4C3E00000080DA
:10008000BEABAAAAAA3E00000000BF000000803F4D
:100090000000000000084178D3BB4387D1133D190D
:1000A0000E3CC3BD4282AD2B3E68EC8276BED98F3A
:1000B000E1A93E4C80EFFFBE01C4FF7F3F0000007E
:1000C000000011241FBECFEFD8E0DEBFCDBF11E08E
:1000D000A0E0B1E0EEE6FCE002C005900D92A03198
:1000E000B107D9F711E0A0E1B1E001C01D92A13143
:1000F000B107E1F70E94F8010C9435060C9400005A
:1001000007C0E7E8F3E13197F1F700C0000001977D
:100110000097B9F70895440F551F485F5E4FFA01E5
:100120002081318140E050E00E94C805CA01B90138
:100130002AE030E040E050E00E94C805862F805D54
:100140000895EF92FF920F931F937B018C01440F50
:10015000551F40505F4FFA016081718180E090E04F
:100160000E944C049B01AC01C801B7010E941F050D
:100170000E941B04CB016AE070E00E94B505805D1F
:100180001F910F91FF90EF9008959093C500809379
:10019000C40088E08093C10086E08093C200089587
:1001A0009091C00095FFFCCF8093C600089588E62B
:1001B0008AB9239A8BB92B9A21EF24BD92E095BD81
:1001C0008FEF87BD88BD2093B0009093B1008093DE
:1001D000B3008093B4000895A1E0B0E0E2EFF0E056
:1001E0000C94F2055B016C0186E749830E94D00004
:1001F00087E70E94D00081E090E0498102C0880F2B
:10020000991F4A95E2F70E94D000C601B50128EE79
:1002100033E040E050E00E94C8056AE0E62EF12C91
:10022000012D112DCA01B901A80197010E94C8052D
:10023000862F805D0E94D000C601B50124E630E023
:1002400040E050E00E94C805CA01B901A801970129
:100250000E94C805862F805D0E94D000C601B501AE
:10026000A80197010E94C805A62ECA01B901A801DC
:1002700097010E94C805862F805D0E94D0008A2DBC
:10028000805D0E94D0002196EAE00C940E066F92E9
:100290007F928F929F92AF92BF92CF92DF92EF9216
:1002A000FF920F931F933B014C0186E70E94D00001
:1002B00087E70E94D00084E00E94D000C401B3010F
:1002C0000E9420045B016C0124E630E040E050E035
:1002D0000E94C8057AE0E72EF12C012D112DCA01EC
:1002E000B901A80197010E94C805862F805D0E9470
:1002F000D000C601B501A80197010E94C805A62E2D
:10030000CA01B901A80197010E94C805862F805D26
:100310000E94D0008A2D805D0E94D000C401B301EC
:1003200040E050E00E94A1000E94D0001F910F9178
:10033000FF90EF90DF90CF90BF90AF909F908F9005
:100340007F906F90089587E880937A0010927C00E8
:10035000089580937C00089580917A008064809352
:100360007A0080917A0084FFFCCF809178008091A0
:100370007900809178009091780040917900809187
:100380007A00806180937A00342F20E0290F311D9C
:10039000C90108951F920F920FB60F9211242F9347
:1003A0003F934F935F936F937F938F939F93AF93FD
:1003B000BF93EF93FF930E944B03823521F481E0BA
:1003C0008093100102C01092100182E08BBBFF915C
:1003D000EF91BF91AF919F918F917F916F915F91BD
:1003E0004F913F912F910F900FBE0F901F90189536
:1003F0002F923F924F925F926F927F928F929F9235
:10040000AF92BF92CF92DF92EF92FF920F931F9322
:100410001092100182E084B984E085B981E890E00F
:100420000E94C5000E94A3010E94D7008EE287B9F6
:1004300018B882E288B954985C9A8091680082600A
:100440008093680080916C00806180936C0086E0EE
:1004500080937C0086E70E94D00078941FEFA6E08E
:100460003A2EF7E02F2EEAE04E2E512C612C712C03
:10047000309B07C0439A1093B40018BC1092B3008D
:1004800006C043981093B40018BD1093B30017BD75
:100490004C990DC020927C00429A0E94AC01BC0194
:1004A00080E090E043E050E00E94EC0003C0309216
:1004B0007C0042981A9B04C080911001813019F48D
:1004C000459882E504C01A9B07C0459A82E70E94BE
:1004D000480389E00E9448034C9BB5C00E94AC01D0
:1004E000BC0180E090E00E944C0427ED33EA40EA32
:1004F00050E40E941F0520E030E040E85AE30E94EB
:100500001F05062FF72EE82EC92E67ED73EA80EA45
:1005100090E4202F3F2D4E2D5C2D0E944E03202F66
:100520003F2D4E2D5C2D0E94B30320E030E543ECBF
:1005300057E40E941F0520E030E44CE156E40E949D
:10054000B3030E94DF046B017C0121EF3BEB46E823
:1005500059E30E941F052DE03FEC4BE55BE30E9451
:100560004F034B015C01C701B60122E835ED4FE2B4
:1005700056E30E941F05A70196010E941F059B01DB
:10058000AC01C501B4010E944F039B01AC0160E0C6
:1005900070E080E89FE30E94B30320E030E848E881
:1005A00053E40E944E03062FF72EE82EC92E0E9418
:1005B0004701602F7F2D8E2D9C2D0E9420044B0122
:1005C0005C0124E630E040E050E00E94C805CA012A
:1005D000B901A30192010E94C805862F805D0E9487
:1005E0004803C501B401A30192010E94C805862EEB
:1005F000CA01B901A30192010E94C805862F805D3E
:100600000E944803882D805D0E9448038EE20E946C
:100610004803602F7F2D8E2D9C2D40E050E00E94DE
:10062000A1000E944803602F7F2D8E2D9C2D41E05C
:1006300050E00E94A1000E9448038AE00E94480303
:100640008DE00E94480384EF91E00E94800010CF6B
:100650005AE02095089410F4419802C0419A000095
:1006600013D012D026955A95B1F7089559E03499D0
:10067000FECF0AD009D008D08894349908945A95AE
:1006800011F03795F7CF089576E37A95F1F708954D
:10069000282FDEDF0895EADF832F08955058BB2707
:1006A000AA270ED04DC13ED130F043D120F031F415
:1006B0009F3F11F41EF433C10EF4E095E7FB29C10E
:1006C000E92F4FD180F3BA176207730784079507A4
:1006D00018F071F49EF567C10EF4E0950B2EBA2F59
:1006E000A02D0B01B90190010C01CA01A001112438
:1006F000FF27591B99F0593F50F4503E68F11A16E4
:10070000F040A22F232F342F4427585FF3CF469574
:1007100037952795A795F0405395C9F77EF41F1696
:10072000BA0B620B730B840BBAF09150A1F0FF0F60
:10073000BB1F661F771F881FC2F70EC0BA0F621F4C
:10074000731F841F48F4879577956795B795F7953C
:100750009E3F08F0B3CF9395880F08F09927EE0FCE
:100760009795879508950CD0EBC0E3D040F0DAD090
:1007700030F021F45F3F19F0CCC0511115C1CFC04A
:10078000F0D098F39923C9F35523B1F3951B550B7A
:10079000BB27AA2762177307840738F09F5F5F4F54
:1007A000220F331F441FAA1FA9F333D00E2E3AF095
:1007B000E0E830D091505040E695001CCAF729D0AF
:1007C000FE2F27D0660F771F881FBB1F26173707FE
:1007D0004807AB07B0E809F0BB0B802DBF01FF272E
:1007E00093585F4F2AF09E3F510568F092C0DCC0DD
:1007F0005F3FECF3983EDCF3869577956795B79568
:10080000F7959F5FC9F7880F911D9695879597F982
:100810000895E1E0660F771F881FBB1F62177307FB
:100820008407BA0720F0621B730B840BBA0BEE1F10
:1008300088F7E095089504D06894B111B5C0089583
:1008400098D088F09F5790F0B92F9927B751A0F012
:10085000D1F0660F771F881F991F1AF0BA95C9F754
:1008600012C0B13081F09FD0B1E008959CC0672FD5
:10087000782F8827B85F39F0B93FCCF38695779504
:100880006795B395D9F73EF49095809570956195ED
:100890007F4F8F4F9F4F0895E89409C097FB3EF418
:1008A00090958095709561957F4F8F4F9F4F9923BD
:1008B000A9F0F92F96E9BB279395F695879577953B
:1008C0006795B795F111F8CFFAF4BB0F11F460FFFB
:1008D0001BC06F5F7F4F8F4F9F4F16C0882311F053
:1008E00096E911C0772321F09EE8872F762F05C067
:1008F000662371F096E8862F70E060E02AF09A9502
:10090000660F771F881FDAF7880F9695879597F9F6
:10091000089597F99F6780E870E060E008959FEF81
:1009200080EC089500240A94161617061806090686
:10093000089500240A941216130614060506089555
:10094000092E0394000C11F4882352F0BB0F40F4DD
:10095000BF2B11F460FF04C06F5F7F4F8F4F9F4F1D
:10096000089557FD9058440F551F59F05F3F71F09F
:100970004795880F97FB991F61F09F3F79F0879506
:100980000895121613061406551FF2CF4695F1DF8F
:1009900008C0161617061806991FF1CF869571051F
:1009A000610508940895E894BB2766277727CB0153
:1009B00097F908950EF0A6C0B2CF6894AACFD9DFF8
:1009C000C8F39923D1F3C6F3DF93CF931F930F930B
:1009D000FF92C92FDD2788232AF02197660F771F02
:1009E000881FDAF720E030E040E85FEB9FE38839CA
:1009F00020F0803E30F021968F7751DEE8E6F0E07F
:100A000003C04DDEE5E9F0E08BD08B01BE01EC01C7
:100A1000FB2E6F5771097595771F880B990B3EDF79
:100A200028E132E741E35FE316D0AF2D9801AE0134
:100A3000FF900F911F91CF91DF9142DE81CF0BD0BC
:100A40007FCF70DF28F075DF18F0952309F061CFB4
:100A500066CF1124A9CF85DFA0F3959FD1F3950F21
:100A600050E0551F629FF001729FBB27F00DB11D32
:100A7000639FAA27F00DB11DAA1F649F6627B00DC2
:100A8000A11D661F829F2227B00DA11D621F739FAB
:100A9000B00DA11D621F839FA00D611D221F749FB9
:100AA0003327A00D611D231F849F600D211D822F00
:100AB000762F6A2F11249F5750408AF0E1F0882347
:100AC0004AF0EE0FFF1FBB1F661F771F881F915054
:100AD0005040A9F79E3F510570F01BCF65CF5F3F97
:100AE000ECF3983EDCF3869577956795B795F79587
:100AF000E7959F5FC1F7FE2B880F911D969587950F
:100B000097F908959F3F31F0915020F4879577959C
:100B10006795B795880F911D9695879597F90895D4
:100B2000DF93CF931F930F93FF92EF92DF927B019E
:100B30008C01689405C0DA2EEF018DDFFE01E89488
:100B4000A5912591359145915591AEF3EF01B8DD11
:100B5000FE019701A801DA9479F7DF90EF90FF90FA
:100B60000F911F91CF91DF91089597FB092E0726D2
:100B70000AD077FD04D065D006D000201AF4709515
:100B800061957F4F0895F6F7909581959F4F089551
:100B9000A1E21A2EAA1BBB1BFD010DC0AA1FBB1F81
:100BA000EE1FFF1FA217B307E407F50720F0A21BF3
:100BB000B30BE40BF50B661F771F881F991F1A9460
:100BC00069F760957095809590959B01AC01BD018A
:100BD000CF0108952F923F924F925F926F927F9232
:100BE0008F929F92AF92BF92CF92DF92EF92FF923D
:100BF0000F931F93CF93DF93CDB7DEB7CA1BDB0BE9
:100C00000FB6F894DEBF0FBECDBF09942A8839888D
:100C100048885F846E847D848C849B84AA84B98494
:100C2000C884DF80EE80FD800C811B81AA81B981A0
:100C3000CE0FD11D0FB6F894DEBF0FBECDBFED01B4
:100C40000895AA1BBB1B51E107C0AA1FBB1FA61713
:100C5000B70710F0A61BB70B881F991F5A95A9F765
:0E0C600080959095BC01CD010895F894FFCFCA
:100C6E000A006400E803102701000A006400E8038C
:00000001FF
