:100000000C9434000C9449000C9449000C94490061
:100010000C9449000C9449000C9449000C9449003C
:100020000C9449000C9449000C9449000C9449002C
:100030000C9449000C9449000C9449000C9449001C
:100040000C9449000C9449000C9449000C9449000C
:100050000C9449000C9449000C9449000C944900FC
:100060000C9449000C94490011241FBECFEFD8E036
:10007000DEBFCDBF11E0A0E0B1E0E0E5F6E002C0F8
:1000800005900D92A031B107D9F70E947C010C9424
:1000900026030C94000028E833E104C0F9013197ED
:1000A000F1F701970097D1F70895FA01EE0FFF1FBE
:1000B000E85FFE4F2081318140E050E00E94F00275
:1000C000CA01B9012AE030E040E050E00E94F002AD
:1000D000862F805D0895EF92FF920F931F937B010F
:1000E0008C01FA01EE0FFF1FE050FF4F608171811C
:1000F00080E090E00E94EC019B01AC01C801B701D7
:100100000E9452020E94BB01DC01CB016AE070E058
:100110000E94DD02805D1F910F91FF90EF90089586
:100120009093C5008093C40088E08093C10086E06E
:100130008093C2000895982F8091C00085FFFCCF66
:100140009093C6000895EF92FF920F931F937B0147
:100150008C018091C00085FFFCCF86E78093C600AC
:100160008091C00085FFFCCF87E78093C600809117
:10017000C00085FFFCCF81E090E002C0880F991F8E
:100180004A95E2F78093C6008091C00085FFFCCFBE
:10019000C801B70143E050E00E9455008093C600BB
:1001A0008091C00085FFFCCFC801B70142E050E05C
:1001B0000E9455008093C6008091C00085FFFCCF4F
:1001C000C801B70141E050E00E9455008093C6008D
:1001D0008091C00085FFFCCFC801B70140E050E02E
:1001E0000E9455008093C6001F910F91FF90EF90E1
:1001F0000895AF92BF92CF92DF92EF92FF920F934A
:100200001F935B016C018091C00085FFFCCF86E7E6
:100210008093C6008091C00085FFFCCF87E7809364
:10022000C6008091C00085FFFCCF84E08093C600AB
:10023000C601B5010E94C0017B018C018091C00004
:1002400085FFFCCFC801B70142E050E00E94550095
:100250008093C6008091C00085FFFCCFC801B70124
:1002600041E050E00E9455008093C6008091C0009C
:1002700085FFFCCFC801B70140E050E00E94550067
:100280008093C6008091C00085FFFCCFC601B501F8
:1002900040E050E00E946B008093C6001F910F91D8
:1002A000FF90EF90DF90CF90BF90AF90089587E8D8
:1002B00080937A0086E080937C00089580917A0094
:1002C000806480937A0080917A0084FFFCCF8091D3
:1002D0007800809179008091780040917800909129
:1002E000790080917A00806180937A00392F20E034
:1002F000240F311DC9010895CF93DF93219A85B151
:10030000866085B91092C50081E88093C40088E0BA
:100310008093C10096E09093C20087E880937A00B2
:1003200090937C0038988091C00085FFFCCF86E7D1
:100330008093C60022EC31E0C8E8D3E105C0CE01CD
:100340000197F1F72150304021153105C1F7309B5D
:1003500007C065E070E080E090E040E050E006C05B
:1003600066E470E080E090E043E050E00E94A3008B
:1003700022EC31E0E4CF04D06894B1118DC008952F
:1003800070D088F09F5790F0B92F9927B751A0F0FF
:10039000D1F0660F771F881F991F1AF0BA95C9F719
:1003A00012C0B13081F077D0B1E0089574C0672FEA
:1003B000782F8827B85F39F0B93FCCF386957795C9
:1003C0006795B395D9F73EF49095809570956195B2
:1003D0007F4F8F4F9F4F0895E89409C097FB3EF4DD
:1003E00090958095709561957F4F8F4F9F4F992382
:1003F000A9F0F92F96E9BB279395F6958795779500
:100400006795B795F111F8CFFAF4BB0F11F460FFBF
:100410001BC06F5F7F4F8F4F9F4F16C0882311F017
:1004200096E911C0772321F09EE8872F762F05C02B
:10043000662371F096E8862F70E060E02AF09A95C6
:10044000660F771F881FDAF7880F9695879597F9BB
:10045000089557FD9058440F551F59F05F3F71F0B4
:100460004795880F97FB991F61F09F3F79F087951B
:100470000895121613061406551FF2CF4695F1DFA4
:1004800008C0161617061806991FF1CF8695710534
:10049000610508940895E894BB2766277727CB0168
:1004A00097F908950BD078C069D028F06ED018F075
:1004B000952309F05AC05FC01124EECFCADFA0F324
:1004C000959FD1F3950F50E0551F629FF001729FE9
:1004D000BB27F00DB11D639FAA27F00DB11DAA1F08
:1004E000649F6627B00DA11D661F829F2227B00D55
:1004F000A11D621F739FB00DA11D621F839FA00DE0
:10050000611D221F749F3327A00D611D231F849F2F
:10051000600D211D822F762F6A2F11249F57504086
:100520008AF0E1F088234AF0EE0FFF1FBB1F661F21
:10053000771F881F91505040A9F79E3F510570F0DA
:1005400014C0AACF5F3FECF3983EDCF38695779515
:100550006795B795F795E7959F5FC1F7FE2B880FD5
:10056000911D9695879597F9089597F99F6780E86B
:1005700070E060E008959FEF80EC089500240A94F5
:100580001616170618060906089500240A9412166E
:100590001306140605060895092E0394000C11F4A1
:1005A000882352F0BB0F40F4BF2B11F460FF04C04E
:1005B0006F5F7F4F8F4F9F4F089597FB092E072640
:1005C0000AD077FD04D02ED006D000201AF4709502
:1005D00061957F4F0895F6F7909581959F4F089507
:1005E000A1E21A2EAA1BBB1BFD010DC0AA1FBB1F37
:1005F000EE1FFF1FA217B307E407F50720F0A21BA9
:10060000B30BE40BF50B661F771F881F991F1A9415
:1006100069F760957095809590959B01AC01BD013F
:10062000CF010895AA1BBB1B51E107C0AA1FBB1F26
:10063000A617B70710F0A61BB70B881F991F5A956E
:10064000A9F780959095BC01CD010895F894FFCF4E
:100650000A006400E803102701000A006400E803B0
:00000001FF
