:100000000C9461000C9476000C9476000C947600AD
:100010000C9476000C9476000C9476000C94760088
:100020000C9476000C9476000C9476000C94760078
:100030000C9476000C9476000C9476000C94760068
:100040000C9476000C9476000C9476000C94760058
:100050000C9476000C9476000C9476000C94760048
:100060000C9476000C94760008000000BE9224499F
:10007000123EABAAAA2ABECDCCCC4C3E00000080DA
:10008000BEABAAAAAA3E00000000BF000000803F4D
:100090000000000000084178D3BB4387D1133D190D
:1000A0000E3CC3BD4282AD2B3E68EC8276BED98F3A
:1000B000E1A93E4C80EFFFBE01C4FF7F3F0000007E
:1000C000000011241FBECFEFD8E0DEBFCDBF11E08E
:1000D000A0E0B1E0E4E5FBE002C005900D92A031A4
:1000E000B107D9F70E94BE010C94A8050C9400003A
:1000F00028E833E104C0F9013197F1F7019700973F
:10010000D1F70895FA01EE0FFF1FE85FFE4F20813F
:10011000318140E050E00E945605CA01B9012AE051
:1001200030E040E050E00E945605862F805D089543
:10013000EF92FF920F931F937B018C01FA01EE0F58
:10014000FF1FE050FF4F6081718180E090E00E94CE
:10015000DA039B01AC01C801B7010E94AD040E9403
:10016000A903DC01CB016AE070E00E944305805DD9
:100170001F910F91FF90EF9008959093C500809389
:10018000C40088E08093C10086E08093C200089597
:10019000982F8091C00085FFFCCF9093C6000895F2
:1001A00088E68AB9239A8BB92B9A21EF24BD92E075
:1001B00095BD8FEF87BD88BD2093B0009093B100AF
:1001C0008093B3008093B4000895EF92FF920F9351
:1001D0001F937B018C018091C00085FFFCCF86E7D7
:1001E0008093C6008091C00085FFFCCF87E7809395
:1001F000C6008091C00085FFFCCF81E090E002C086
:10020000880F991F4A95E2F78093C6008091C0003D
:1002100085FFFCCFC801B70143E050E00E94820097
:100220008093C6008091C00085FFFCCFC801B70154
:1002300042E050E00E9482008093C6008091C0009E
:1002400085FFFCCFC801B70141E050E00E94820069
:100250008093C6008091C00085FFFCCFC801B70124
:1002600040E050E00E9482008093C6001F910F91F1
:10027000FF90EF900895AF92BF92CF92DF92EF92EE
:10028000FF920F931F935B016C018091C00085FF6B
:10029000FCCF86E78093C6008091C00085FFFCCF2D
:1002A00087E78093C6008091C00085FFFCCF84E083
:1002B0008093C600C601B5010E94AE037B018C018C
:1002C0008091C00085FFFCCFC801B70142E050E03B
:1002D0000E9482008093C6008091C00085FFFCCF01
:1002E000C801B70141E050E00E9482008093C6003F
:1002F0008091C00085FFFCCFC801B70140E050E00D
:100300000E9482008093C6008091C00085FFFCCFD0
:10031000C601B50140E050E00E9498008093C600FD
:100320001F910F91FF90EF90DF90CF90BF90AF9013
:10033000089587E880937A0086E080937C00089592
:1003400080917A00806480937A0080917A0084FFA3
:10035000FCCF809178008091790080917800409165
:1003600078009091790080917A00806180937A0082
:10037000392F20E0240F311DC9010895A0E0B0E01D
:10038000E4ECF1E00C947F0582E084B984E085B967
:100390001092C50081E88093C40088E08093C1007A
:1003A00096E09093C20087E880937A0090937C0057
:1003B0000E94D0008EE287B918B880E288B9809197
:1003C000C00085FFFCCF86E78093C60099249A94ED
:1003D000C8E8D3E1309B07C0439A9092B40018BCA0
:1003E0001092B30006C043989092B40098BC9092CB
:1003F000B30097BC1A9907C0459882E50E94D902BC
:1004000089E00E94D9021A9B07C0459A82E70E94A0
:10041000D90289E00E94D9020E94A001A0E0B0E0C8
:10042000BC01CD010E94DA032DEC3CEC4CE950E418
:100430000E94AD0420E030E040E85AE30E94AD04A1
:100440007B018C016DEC7CEC8CE990E4A8019701B8
:100450000E94DC02A80197010E94410320E030E5E0
:1004600043EC57E40E94AD0420E030E44CE156E454
:100470000E9441030E946D045B016C01C801B70139
:1004800020E030E04AE754E40E94AD040E94AE034D
:1004900040E050E00E94E50084EF91E0FE013197DA
:1004A000F1F70197D9F7C601B50121EF3BEB46E81B
:1004B00059E30E94AD042DE03FEC4BE55BE30E9465
:1004C000DD027B018C01C601B50122E835ED4FE26A
:1004D00056E30E94AD04A60195010E94AD049B0164
:1004E000AC01C801B7010E94DD029B01AC0160E0D4
:1004F00070E080E89FE30E94410320E030E848E894
:1005000053E40E94DC025B016C010E943B0184EF1A
:1005100091E0FE013197F1F70197D9F7C601B501D6
:100520000E94AE037B018C0142E050E00E948200F9
:100530000E94D902C801B70141E050E00E94820048
:100540000E94D902C801B70140E050E00E94820039
:100550000E94D902C601B50140E050E00E94980017
:100560000E94D9028AE00E94D9028DE00E94D9023D
:1005700031CF5AE02095089410F4419802C0419A76
:10058000000013D012D026955A95B1F7089559E07E
:100590003499FECF0AD009D008D0889434990894B1
:1005A0005A9511F03795F7CF089576E37A95F1F7DC
:1005B0000895282FDEDF08955058BB27AA270ED0B4
:1005C0004DC13ED130F043D120F031F49F3F11F4C2
:1005D0001EF433C10EF4E095E7FB29C1E92F4FD19A
:1005E00080F3BA17620773078407950718F071F450
:1005F0009EF567C10EF4E0950B2EBA2FA02D0B01CE
:10060000B90190010C01CA01A0011124FF27591B57
:1006100099F0593F50F4503E68F11A16F040A22F5D
:10062000232F342F4427585FF3CF469537952795CE
:10063000A795F0405395C9F77EF41F16BA0B620BCD
:10064000730B840BBAF09150A1F0FF0FBB1F661F14
:10065000771F881FC2F70EC0BA0F621F731F841F57
:1006600048F4879577956795B795F7959E3F08F07D
:10067000B3CF9395880F08F09927EE0F979587953C
:1006800008950CD0EBC0E3D040F0DAD030F021F484
:100690005F3F19F0CCC0511115C1CFC0F0D098F315
:1006A0009923C9F35523B1F3951B550BBB27AA27F3
:1006B00062177307840738F09F5F5F4F220F331F65
:1006C000441FAA1FA9F333D00E2E3AF0E0E830D031
:1006D00091505040E695001CCAF729D0FE2F27D034
:1006E000660F771F881FBB1F261737074807AB0702
:1006F000B0E809F0BB0B802DBF01FF2793585F4F77
:100700002AF09E3F510568F092C0DCC05F3FECF3D9
:10071000983EDCF3869577956795B795F7959F5F3B
:10072000C9F7880F911D9695879597F90895E1E08F
:10073000660F771F881FBB1F621773078407BA07EE
:1007400020F0621B730B840BBA0BEE1F88F7E09549
:10075000089504D06894B111B5C0089598D088F078
:100760009F5790F0B92F9927B751A0F0D1F0660F9D
:10077000771F881F991F1AF0BA95C9F712C0B130B8
:1007800081F09FD0B1E008959CC0672F782F882713
:10079000B85F39F0B93FCCF3869577956795B395F7
:1007A000D9F73EF490958095709561957F4F8F4F66
:1007B0009F4F0895E89409C097FB3EF4909580956B
:1007C000709561957F4F8F4F9F4F9923A9F0F92F17
:1007D00096E9BB279395F695879577956795B79595
:1007E000F111F8CFFAF4BB0F11F460FF1BC06F5F7B
:1007F0007F4F8F4F9F4F16C0882311F096E911C08D
:10080000772321F09EE8872F762F05C0662371F0AD
:1008100096E8862F70E060E02AF09A95660F771FC1
:10082000881FDAF7880F9695879597F9089597F9B5
:100830009F6780E870E060E008959FEF80EC089586
:1008400000240A94161617061806090608950024AF
:100850000A9412161306140605060895092E039429
:10086000000C11F4882352F0BB0F40F4BF2B11F49D
:1008700060FF04C06F5F7F4F8F4F9F4F089557FDFC
:100880009058440F551F59F05F3F71F04795880FFE
:1008900097FB991F61F09F3F79F087950895121695
:1008A00013061406551FF2CF4695F1DF08C0161641
:1008B00017061806991FF1CF8695710561050894F2
:1008C0000895E894BB2766277727CB0197F9089509
:1008D0000EF0A6C0B2CF6894AACFD9DFC8F399238F
:1008E000D1F3C6F3DF93CF931F930F93FF92C92FDA
:1008F000DD2788232AF02197660F771F881FDAF7F4
:1009000020E030E040E85FEB9FE3883920F0803E54
:1009100030F021968F7751DEE8E6F0E003C04DDE3F
:10092000E5E9F0E08BD08B01BE01EC01FB2E6F57A7
:1009300071097595771F880B990B3EDF28E132E727
:1009400041E35FE316D0AF2D9801AE01FF900F9108
:100950001F91CF91DF9142DE81CF0BD07FCF70DF2F
:1009600028F075DF18F0952309F061CF66CF1124C8
:10097000A9CF85DFA0F3959FD1F3950F50E0551FC8
:10098000629FF001729FBB27F00DB11D639FAA27E4
:10099000F00DB11DAA1F649F6627B00DA11D661F33
:1009A000829F2227B00DA11D621F739FB00DA11D54
:1009B000621F839FA00D611D221F749F3327A00D0E
:1009C000611D231F849F600D211D822F762F6A2FAA
:1009D00011249F5750408AF0E1F088234AF0EE0F2F
:1009E000FF1FBB1F661F771F881F91505040A9F73C
:1009F0009E3F510570F01BCF65CF5F3FECF3983EF3
:100A0000DCF3869577956795B795F795E7959F5FA2
:100A1000C1F7FE2B880F911D9695879597F908953C
:100A20009F3F31F0915020F4879577956795B79562
:100A3000880F911D9695879597F90895DF93CF9329
:100A40001F930F93FF92EF92DF927B018C016894CA
:100A500005C0DA2EEF018DDFFE01E894A591259106
:100A6000359145915591AEF3EF01B8DDFE01970147
:100A7000A801DA9479F7DF90EF90FF900F911F9122
:100A8000CF91DF91089597FB092E07260AD077FDB5
:100A900004D04AD006D000201AF4709561957F4F9B
:100AA0000895F6F7909581959F4F0895A1E21A2E2B
:100AB000AA1BBB1BFD010DC0AA1FBB1FEE1FFF1F02
:100AC000A217B307E407F50720F0A21BB30BE40B52
:100AD000F50B661F771F881F991F1A9469F7609599
:100AE0007095809590959B01AC01BD01CF01089553
:100AF0002F923F924F925F926F927F928F929F922E
:100B0000AF92BF92CF92DF92EF92FF920F931F931B
:100B1000CF93DF93CDB7DEB7CA1BDB0B0FB6F894CC
:100B2000DEBF0FBECDBF0994AA1BBB1B51E107C09E
:100B3000AA1FBB1FA617B70710F0A61BB70B881F6D
:100B4000991F5A95A9F780959095BC01CD010895FC
:040B5000F894FFCF47
:100B54000A006400E803102701000A006400E803A7
:00000001FF
