:100000000C9434000C9451000C9451000C94510049
:100010000C9451000C9451000C9451000C9451001C
:100020000C9451000C9451000C9451000C9451000C
:100030000C9451000C9451000C9451000C945100FC
:100040000C9451000C9451000C9451000C945100EC
:100050000C9451000C9451000C9451000C945100DC
:100060000C9451000C94510011241FBECFEFD4E02A
:10007000DEBFCDBF11E0A0E0B1E0E0E3F0E102C0FF
:1000800005900D92A231B107D9F711E0A2E1B1E0DC
:1000900001C01D92A231B107E1F70E94F0000C945B
:1000A00017080C940000CF93DF939C01892B51F02B
:1000B000A8E8B3E1C0E0D0E0CD010197F1F721500D
:1000C0003040D1F7DF91CF910895FB01E60FF71F84
:1000D000E050FF4F20813181B9010E94CC07CB0154
:1000E0006AE070E00E94CC07805D992787FD9095BB
:1000F00008959C01832F99278093C5002093C40005
:1001000088E08093C10086E08093C2000895982F14
:100110008091C00085FFFCCF9093C6000895CF92D8
:10012000DF92EF92FF920F931F938C017B0186E782
:100130000E94870087E70E94870091E0C92ED12C9A
:10014000C60102C0880F991FEA94E2F70E94870057
:1001500063E070E0C8010E9465000E94870062E0D1
:1001600070E0C8010E9465000E948700B601C801C6
:100170000E9465000E94870060E070E0C8010E9454
:1001800065000E9487001F910F91FF90EF90DF9014
:10019000CF90089587E880937A0086E080937C0072
:1001A000089580917A00806480937A0080917A002B
:1001B00084FFFCCF80917800809179008091780055
:1001C00040917800809179009927382F22278091DB
:1001D0007A00806180937A00C901840F911D08958F
:1001E000CFEFD4E0DEBFCDBF81E890E00E94790080
:1001F0000E94CA003A9A3B9A519A86E70E94870069
:1002000082EC91E00E9453000E94D1008C01C80151
:10021000AA2797FDA095BA2FBC01CD010E944105E8
:1002200017FF06C020E030E040E857E40E94DA0201
:100230002DE33AE04FE950E40E944003DC01CB019A
:1002400020E030E040E85AE3BC01CD010E944003C9
:10025000DC01CB0120E030E048EC52E4BC01CD01F0
:100260000E944003DC01CB01BC01CD010E948C0146
:10027000DC01CB01AC012AEF31E0281B390B84E60D
:1002800090E0489FB001499F700D589F700D112458
:10029000CB01B9010E94CC07CB01885E93406AE094
:1002A00070E00E94CC078B01CB01AA2797FDA09597
:1002B000BA2FBC01CD010E94410517FF06C020E006
:1002C00030E040E857E40E94DA0220E030E048E8FD
:1002D00050E40E945B04DC01CB019C01AD0160E0B5
:1002E00070E088EC91E40E940B03DC01CB01BC01BF
:1002F000CD010E948C01DC01CB019C0143E0880F01
:10030000991F4A95E1F7820F931F62E070E0820F18
:10031000931F0E948F0074CFEF92FF920F931F9351
:100320007B018C0120E030E040E05FE40E940B059F
:1003300088239CF020E030E040E05FECC801B7018A
:100340000E94DA02DC01CB01BC01CD010E94A505AF
:10035000605070408040904804C0C801B7010E94BE
:10036000A5051F910F91FF90EF900895A0E0B0E0D8
:10037000ECEBF1E00C94E0078C017B015A01DC010D
:100380008C91823058F0FB019081923010F4A701DB
:100390000BC1843029F4943009F4A6C0A80104C12B
:1003A0009430A9F3923009F4A9C0823081F3F801A6
:1003B000C280D380FB0162817381F8012481358181
:1003C00046815781F7016480758086809780C601D9
:1003D000861B970B97FDD8C080970CF46CC06C15EA
:1003E0007D050CF0ADC0662477244301F8016181DE
:1003F000F7018181681709F499C0662309F491C057
:10040000621A730A840A950AA401930157FDC0C0B9
:10041000F5011182B60119012A0179018A01390118
:100420004A0108946108710881089108FFEF6F166E
:10043000FFEF7F06FFEF8F06FFE39F06F0F4A801B2
:100440009701220F331F441F551F19012A01B601BE
:10045000615070406B0179018A0139014A010894A9
:1004600061087108810891088FEF68168FEF780690
:100470008FEF88068FE3980610F383E0D5018C9305
:1004800057FC64C0F5012483358346835783738307
:100490006283A50189C06F5F7F4FD401C301817062
:1004A0009070A070B0709694879477946794682A3F
:1004B000792A8A2A9B2A6C157D056CF311C0089451
:1004C000C11CD11CDA01C90181709070A070B0709C
:1004D0005695479537952795282B392B4A2B5B2B1B
:1004E000C616D70664F382CFF8019181FB018181A2
:1004F000981709F453CF4AE051E056C0823009F012
:100500004DCFDA01F80188E001900D928150E1F7BA
:10051000F8018181F70191818923F5018183A5018A
:1005200043C0261937094809590970CFF50161837D
:10053000B601260D371D481D591D19012A019DCFF1
:100540006B0120E030E040E050E050CFD201C1012B
:10055000B695A7959795879521E030E040E050E06B
:100560002222332244225522282A392A4A2A5B2A67
:10057000F50124823582468257820894C11CD11C21
:10058000D382C282A50110C0909581959F4F24CF40
:1005900081E0F5018183B601509540953095219514
:1005A0003F4F4F4F5F4F37CFCA01E2E1CDB7DEB7C4
:1005B0000C94FC07A0E2B0E0E0EEF2E00C94EE0751
:1005C000DC01CB01898F9A8FAB8FBC8F2D8F3E8F33
:1005D0004F8F58A3BE016F5F7F4FCE0149960E9497
:1005E000DF068E01075F1F4FB801CE014D960E94B6
:1005F000DF06AE014F5E5F4FB801CE0101960E944B
:10060000B6010E94F705DC01CB01BC01CD01E4E09D
:10061000A0960C940A08A0E2B0E0E1E1F3E00C94AB
:10062000EE07DC01CB01898F9A8FAB8FBC8F2D8FAA
:100630003E8F4F8F58A3BE016F5F7F4FCE0149960B
:100640000E94DF068E01075F1F4FB801CE014D9655
:100650000E94DF068A8591E089278A87AE014F5E76
:100660005F4FB801CE0101960E94B6010E94F705C6
:10067000DC01CB01BC01CD01E4E0A0960C940A089A
:10068000A0E2B0E0E6E4F3E00C94E007DC01CB018B
:10069000898F9A8FAB8FBC8F2D8F3E8F4F8F58A332
:1006A000BE016F5F7F4FCE0149960E94DF0669E071
:1006B00070E06C0F7D1FCE014D960E94DF06FE019B
:1006C0003196662477244301130124018981823005
:1006D00098F09985923058F420E091818A8598139A
:1006E00021E02A8769E070E06C0F7D1FD9C084305B
:1006F00059F4923009F45BC020E091818A85981307
:1007000021E02183BF01CCC0943009F44DC0823078
:1007100099F3923009F3ED80FE800F8118852D85C5
:100720003E854F855889640153016FE170E00CC02C
:10073000220F331F441F551F16950795F794E79412
:100740006150704077FD36C0D801C701817090704C
:10075000A070B070892BC9F080E090E0220E331EAB
:10076000441E551E221633064406550610F481E039
:1007700090E0AA2797FDA095BA2F8A0D9B1DAC1D6E
:10078000BD1D680E791E8A1E9B1EAA0CBB1CCC1CAC
:10079000DD1C57FFCDCF81E090E0A0E0B0E0A82ABB
:1007A000B92ACA2ADB2AC4CF823009F095CF6AE081
:1007B00071E076C0228133818B859C85280F391F9B
:1007C0002E5F3F4FA90160E091818A85981361E017
:1007D0006A8B97FE0FC02FC0CA010197AC019C0124
:1007E000660C771C881C991C57FC41C0220C331CDA
:1007F000441C551C90E0691690E0790690E089064B
:1008000090E4990648F33C8B2B8BD401C3018F777E
:100810009070A070B07080349105A105B10581F190
:100820006D8A7E8A8F8A988E83E0898B61E170E081
:100830006C0F7D1F35C02F5F3F4FA901D401C3014D
:1008400081709070A070B070892B61F056944794BD
:100850003794279480E090E0A0E0B0E8282A392A75
:100860004A2A5B2A9694879477946794C3CF81E051
:1008700090E0A0E0B0E0682A792A8A2A9B2AB6CFC5
:1008800067FC05C0211431044104510449F280E49D
:1008900090E0A0E0B0E0680E791E8A1E9B1EC0CFDB
:1008A000CB010E94F705DC01CB01BC01CD01E2E1E7
:1008B000A0960C94FC07A8E1B0E0E1E6F4E00C940B
:1008C000E807DC01CB01898B9A8BAB8BBC8B2D8B22
:1008D0003E8B4F8B588FBE016F5F7F4FCE0141968D
:1008E0000E94DF068E01075F1F4FB801CE014596BB
:1008F0000E94DF06FE0131962981223008F45FC094
:100900003985323010F4B8017BC081819A858927FE
:100910008183243009F455C0223009F452C03430A8
:1009200009F454C0323009F458C06B817C818B8546
:100930009C85681B790B2D813E814F815885ED8404
:10094000FE840F8518892E153F054007510730F4A6
:10095000220F331F441F551F615070407C836B83EF
:1009600080E090E0A0E0B0E4AA24BB2465012E154D
:100970003F054007510740F0A82AB92ACA2ADB2AB6
:100980002E193F09400B510BB695A7959795879562
:10099000220F331F441F551F0097A105B10539F7DA
:1009A000D601C5018F779070A070B070803491052A
:1009B000A105B105A9F0A482B582C682D782BF0184
:1009C0001FC02317E1F76AE071E01AC01D821E8282
:1009D0001F8218861C821B82F2CF84E08983EFCFAE
:1009E000A7FC05C0211531054105510521F380E41F
:1009F00090E0A0E0B0E0A80EB91ECA1EDB1EDBCF5F
:100A0000CB010E94F705DC01CB01BC01CD01EAE07E
:100A100068960C940408A8E1B0E0E1E1F5E00C94DC
:100A2000EE07DC01CB01898B9A8BAB8BBC8B2D8BBA
:100A30003E8B4F8B588FBE016F5F7F4FCE0141962B
:100A40000E94DF068E01075F1F4FB801CE01459659
:100A50000E94DF068981823018F08985823018F47F
:100A60002FEF3FEF09C0B801CE0101960E94590750
:100A7000282F332727FD3095C901E4E068960C94B0
:100A80000A08A8E0B0E0E7E4F5E00C94EC079B016D
:100A9000AC017B018C01EE2417FDE394FF240027B9
:100AA0001127EA82211531054105510539F482E00B
:100AB0008983CE0101960E94F70543C083E08983B4
:100AC0006EE170E0CB01EE2031F579018A01A801D9
:100AD00097012030E0E03E07E0E04E07E0E45E07EB
:100AE00098F479018A01EE0CFF1C001F111F019779
:100AF000BC01A8019701E0E0EE16E0E0FE06E0E0B0
:100B00000E07E0E41E0768F3ED82FE820F8318876C
:100B10007C836B83CECF2030E0E03E07E0E04E07E1
:100B2000E0E85E0741F0EE24FF248701E21AF30AB1
:100B3000040B150BCCCF7C836B8360E070E080E00E
:100B40009FECE6E028960C940808ACE0B0E0EBEAF5
:100B5000F5E00C94F007DC01CB0189879A87AB871D
:100B6000BC87BE016F5F7F4FCE0109960E94DF06F2
:100B70008981823011F0823028F460E070E080E0FA
:100B800090E031C0843039F02B813C8137FDF5CFC6
:100B90002F3131056CF08A81882329F060E070E004
:100BA00080E090E820C06FEF7FEF8FEF9FE71BC0E2
:100BB0008EE190E0821B930B2D813E814F81588501
:100BC00004C056954795379527958A95D2F78A811F
:100BD000882339F050954095309521953F4F4F4FE0
:100BE0005F4FCA01B901E2E02C960C940C08A0E01A
:100BF000B0E0EDEFF5E00C94E60788249924540169
:100C0000DC01FC0124813581468157818181082FD7
:100C1000112760E070E08C91823020F46FEF70E07B
:100C20004061A4C0843009F464C0823009F463C018
:100C3000211531054105510509F498C0FD01828156
:100C40009381FFEF82389F070CF050C0A2E8EA2E94
:100C5000AFEFFA2EE81AF90A8AE1E816F1040CF06F
:100C60006BC06B0181E090E0A0E0B0E00E2C04C00E
:100C7000880F991FAA1FBB1F0A94D2F70197A109D9
:100C8000B10982239323A423B5230097A105B105BD
:100C900019F0F1E0CF2ED12C04C056954795379529
:100CA0002795EA94D2F7C601AA2797FDA095BA2FF7
:100CB000282B392B4A2B5B2BDA01C9018F779070D7
:100CC000A070B07080349105A105B105D1F1215C0F
:100CD0003F4F4F4F5F4F2030E0E03E07E0E04E07D0
:100CE000E0E45E0708F161E070E01EC08038910525
:100CF0003CF06FEF70E020E030E040E050E036C0C4
:100D0000BC0161587F4FDA01C9018F779070A070E4
:100D1000B07080349105A105B105D1F0215C3F4F41
:100D20004F4F5F4F57FD1BC097E05695479537953E
:100D300027959A95D1F71AC020E030E040E050E0C6
:100D4000BBCF27FFC8CF205C3F4F4F4F5F4FC3CF74
:100D500027FFE8CF205C3F4F4F4F5F4FE3CF5695C3
:100D60004795379527956F5F7F4FDECF822E932E65
:100D7000942F9F778A2D8078A82EA92A962F979551
:100D8000992797958A2D8F77A82EA92A769567950A
:100D9000962F9F778B2D8078B82EB92A902F979514
:100DA000992797958B2D8F77B82EB92AD501C40135
:100DB000BC01CD01ECE0CDB7DEB70C940208CF93B7
:100DC000DF93FC01DB01408151812281622F6F772B
:100DD00070E0221F2227221F9381892F880F822BE8
:100DE000282F3327991F9927991FED0199832115E2
:100DF000310541F44115510561057105E1F482E0C9
:100E00008C9354C02F3F310509F441C02F57304017
:100E1000FD013383228383E08C9387E0440F551FC9
:100E2000661F771F8A95D1F77064ED014C835D834F
:100E30006E837F833BC022E83FEFF901C7E0440F98
:100E4000551F661F771FCA95D1F783E08C934030FA
:100E500080E0580780E0680780E4780778F4440F62
:100E6000551F661F771F21503040F9014030C0E008
:100E70005C07C0E06C07C0E47C0788F3ED01FB83EE
:100E8000EA83FD0144835583668377830FC0411550
:100E900051056105710519F484E08C9307C064FF66
:100EA00003C081E08C93C1CF1C92BFCFDF91CF9163
:100EB00008950F931F93CF93DF93FC01DB01808193
:100EC000823018F09C91923018F461E070E05EC0BE
:100ED0008430C1F0843001F1943009F447C082308D
:100EE00009F44BC0823009F44EC09230A9F0418120
:100EF000ED0189814817B9F0442389F08FEF9FEF06
:100F0000BC0144C0943031F7EB018981682F772709
:100F10008181681B71093AC08181882379F781E05A
:100F200090E0BC0133C022813381ED018A819B8135
:100F3000821793070CF3281739079CF00481158159
:100F400026813781FD0164817581868197816017D3
:100F500071078207930780F20617170728073907DA
:100F600078F4442359F281E090E0DBCFFD018181E8
:100F7000882321F281E090E0D4CF923009F0B2CF03
:100F800060E070E003C0ED018981F2CFCB01DF9119
:100F9000CF911F910F910895AA1BBB1B51E107C070
:100FA000AA1FBB1FA617B70710F0A61BB70B881FF9
:100FB000991F5A95A9F780959095BC01CD01089588
:100FC0002F923F924F925F926F927F928F929F9259
:100FD000AF92BF92CF92DF92EF92FF920F931F9347
:100FE000CF93DF93CDB7DEB7CA1BDB0B0FB6F894F8
:100FF000DEBF0FBECDBF09942A88398848885F8438
:101000006E847D848C849B84AA84B984C884DF80A8
:10101000EE80FD800C811B81AA81B981CE0FD11D8C
:101020000FB6F894DEBF0FBECDBFED010895FFCF20
:1010300001000A006400E80310270000000000001F
:021040000000AE
:00000001FF
